{
  "contractName": "Counter",
  "abi": [
    {
      "constant": true,
      "inputs": [],
      "name": "counter",
      "outputs": [
        {
          "name": "",
          "type": "uint256"
        }
      ],
      "payable": false,
      "stateMutability": "view",
      "type": "function"
    },
    {
      "inputs": [],
      "payable": false,
      "stateMutability": "nonpayable",
      "type": "constructor"
    },
    {
      "anonymous": false,
      "inputs": [
        {
          "indexed": false,
          "name": "from",
          "type": "address"
        }
      ],
      "name": "Inc",
      "type": "event"
    },
    {
      "constant": false,
      "inputs": [],
      "name": "inc",
      "outputs": [],
      "payable": false,
      "stateMutability": "nonpayable",
      "type": "function"
    },
    {
      "constant": true,
      "inputs": [],
      "name": "get",
      "outputs": [
        {
          "name": "_counter",
          "type": "uint256"
        }
      ],
      "payable": false,
      "stateMutability": "view",
      "type": "function"
    }
  ],
  "bytecode": "0x608060405234801561001057600080fd5b50610179806100206000396000f300608060405260043610610057576000357c0100000000000000000000000000000000000000000000000000000000900463ffffffff168063371303c01461005c57806361bc221a146100735780636d4ce63c1461009e575b600080fd5b34801561006857600080fd5b506100716100c9565b005b34801561007f57600080fd5b5061008861013e565b6040518082815260200191505060405180910390f35b3480156100aa57600080fd5b506100b3610144565b6040518082815260200191505060405180910390f35b600160008082825401925050819055507ff058555b2b6522accd845d51da171cebcfb918b8a8350bc476e7019041cc71e133604051808273ffffffffffffffffffffffffffffffffffffffff1673ffffffffffffffffffffffffffffffffffffffff16815260200191505060405180910390a1565b60005481565b600080549050905600a165627a7a723058209801567e1cad868fc00d02d4aebb1f31f614cfa8fc3c2436e1c5f602a262be770029",
  "source": "pragma solidity ^0.4.24;\n\ncontract Counter {\n   uint256 public counter;\n\n   event Inc(address from);\n   \n   constructor() public {\n   }\n\n   function inc() public {\n       counter += 1;\n       emit Inc(msg.sender);\n   }\n\n   function get() public view returns(uint256 _counter) {\n       return counter;        \n   }\n}",
  "sourcePath": "/Users/mac/Documents/GitHub/dapp-examples/Contracts/Ethereum/contracts/Counter.sol",
  "compiler": {
    "name": "solc",
    "version": "0.4.24+commit.e67f0147.Emscripten.clang"
  },
  "schemaVersion": "2.0.1",
  "updatedAt": "2018-08-09T13:23:48.400Z"
}