{
  "contractName": "DeliberativeDemocracy",
  "abi": [
    {
      "constant": true,
      "inputs": [
        {
          "name": "",
          "type": "address"
        }
      ],
      "name": "lastVoteTime",
      "outputs": [
        {
          "name": "",
          "type": "uint256"
        }
      ],
      "payable": false,
      "stateMutability": "view",
      "type": "function"
    },
    {
      "constant": true,
      "inputs": [
        {
          "name": "",
          "type": "address"
        }
      ],
      "name": "ticket",
      "outputs": [
        {
          "name": "",
          "type": "uint256"
        }
      ],
      "payable": false,
      "stateMutability": "view",
      "type": "function"
    },
    {
      "constant": true,
      "inputs": [],
      "name": "minVotesIndex",
      "outputs": [
        {
          "name": "",
          "type": "uint256"
        }
      ],
      "payable": false,
      "stateMutability": "view",
      "type": "function"
    },
    {
      "constant": true,
      "inputs": [
        {
          "name": "",
          "type": "uint256"
        }
      ],
      "name": "nodes",
      "outputs": [
        {
          "name": "member",
          "type": "address"
        },
        {
          "name": "tickets",
          "type": "uint256"
        }
      ],
      "payable": false,
      "stateMutability": "view",
      "type": "function"
    },
    {
      "constant": false,
      "inputs": [],
      "name": "renounceOwnership",
      "outputs": [],
      "payable": false,
      "stateMutability": "nonpayable",
      "type": "function"
    },
    {
      "constant": true,
      "inputs": [],
      "name": "owner",
      "outputs": [
        {
          "name": "",
          "type": "address"
        }
      ],
      "payable": false,
      "stateMutability": "view",
      "type": "function"
    },
    {
      "constant": true,
      "inputs": [
        {
          "name": "",
          "type": "address"
        }
      ],
      "name": "isMember",
      "outputs": [
        {
          "name": "",
          "type": "bool"
        }
      ],
      "payable": false,
      "stateMutability": "view",
      "type": "function"
    },
    {
      "constant": true,
      "inputs": [
        {
          "name": "",
          "type": "address"
        }
      ],
      "name": "candidate",
      "outputs": [
        {
          "name": "",
          "type": "address"
        }
      ],
      "payable": false,
      "stateMutability": "view",
      "type": "function"
    },
    {
      "constant": true,
      "inputs": [
        {
          "name": "",
          "type": "address"
        }
      ],
      "name": "isUsed",
      "outputs": [
        {
          "name": "",
          "type": "bool"
        }
      ],
      "payable": false,
      "stateMutability": "view",
      "type": "function"
    },
    {
      "constant": true,
      "inputs": [
        {
          "name": "",
          "type": "address"
        }
      ],
      "name": "isRun",
      "outputs": [
        {
          "name": "",
          "type": "bool"
        }
      ],
      "payable": false,
      "stateMutability": "view",
      "type": "function"
    },
    {
      "constant": true,
      "inputs": [],
      "name": "clientContractAddress",
      "outputs": [
        {
          "name": "",
          "type": "address"
        }
      ],
      "payable": false,
      "stateMutability": "view",
      "type": "function"
    },
    {
      "constant": false,
      "inputs": [
        {
          "name": "_newOwner",
          "type": "address"
        }
      ],
      "name": "transferOwnership",
      "outputs": [],
      "payable": false,
      "stateMutability": "nonpayable",
      "type": "function"
    },
    {
      "inputs": [
        {
          "name": "client",
          "type": "address"
        }
      ],
      "payable": false,
      "stateMutability": "nonpayable",
      "type": "constructor"
    },
    {
      "anonymous": false,
      "inputs": [
        {
          "indexed": true,
          "name": "_index",
          "type": "uint256"
        },
        {
          "indexed": true,
          "name": "_member",
          "type": "address"
        },
        {
          "indexed": true,
          "name": "_tickets",
          "type": "uint256"
        }
      ],
      "name": "Run",
      "type": "event"
    },
    {
      "anonymous": false,
      "inputs": [
        {
          "indexed": true,
          "name": "_index",
          "type": "uint256"
        },
        {
          "indexed": true,
          "name": "_member",
          "type": "address"
        },
        {
          "indexed": true,
          "name": "_tickets",
          "type": "uint256"
        }
      ],
      "name": "RunOut",
      "type": "event"
    },
    {
      "anonymous": false,
      "inputs": [
        {
          "indexed": true,
          "name": "_addr",
          "type": "address"
        },
        {
          "indexed": false,
          "name": "_startTime",
          "type": "uint256"
        },
        {
          "indexed": false,
          "name": "_endTime",
          "type": "uint256"
        },
        {
          "indexed": true,
          "name": "_index",
          "type": "uint256"
        }
      ],
      "name": "InitProposal",
      "type": "event"
    },
    {
      "anonymous": false,
      "inputs": [
        {
          "indexed": true,
          "name": "_addr",
          "type": "address"
        },
        {
          "indexed": false,
          "name": "_index",
          "type": "uint256"
        }
      ],
      "name": "Examine",
      "type": "event"
    },
    {
      "anonymous": false,
      "inputs": [
        {
          "indexed": false,
          "name": "method",
          "type": "string"
        },
        {
          "indexed": false,
          "name": "para",
          "type": "uint256"
        }
      ],
      "name": "JudgeResult",
      "type": "event"
    },
    {
      "anonymous": false,
      "inputs": [
        {
          "indexed": true,
          "name": "previousOwner",
          "type": "address"
        }
      ],
      "name": "OwnershipRenounced",
      "type": "event"
    },
    {
      "anonymous": false,
      "inputs": [
        {
          "indexed": true,
          "name": "previousOwner",
          "type": "address"
        },
        {
          "indexed": true,
          "name": "newOwner",
          "type": "address"
        }
      ],
      "name": "OwnershipTransferred",
      "type": "event"
    },
    {
      "constant": false,
      "inputs": [
        {
          "name": "_client",
          "type": "address"
        }
      ],
      "name": "setClientAddress",
      "outputs": [],
      "payable": false,
      "stateMutability": "nonpayable",
      "type": "function"
    },
    {
      "constant": false,
      "inputs": [],
      "name": "revote",
      "outputs": [],
      "payable": false,
      "stateMutability": "nonpayable",
      "type": "function"
    },
    {
      "constant": false,
      "inputs": [
        {
          "name": "_candidate",
          "type": "address"
        }
      ],
      "name": "vote",
      "outputs": [],
      "payable": false,
      "stateMutability": "nonpayable",
      "type": "function"
    },
    {
      "constant": false,
      "inputs": [],
      "name": "run",
      "outputs": [],
      "payable": false,
      "stateMutability": "nonpayable",
      "type": "function"
    },
    {
      "constant": false,
      "inputs": [],
      "name": "runOut",
      "outputs": [],
      "payable": false,
      "stateMutability": "nonpayable",
      "type": "function"
    },
    {
      "constant": false,
      "inputs": [
        {
          "name": "_method",
          "type": "string"
        },
        {
          "name": "_para",
          "type": "uint256"
        },
        {
          "name": "_startTime",
          "type": "uint256"
        },
        {
          "name": "_endTime",
          "type": "uint256"
        }
      ],
      "name": "proposal",
      "outputs": [],
      "payable": false,
      "stateMutability": "nonpayable",
      "type": "function"
    },
    {
      "constant": false,
      "inputs": [
        {
          "name": "_index",
          "type": "uint256"
        },
        {
          "name": "_bool",
          "type": "bool"
        }
      ],
      "name": "examine",
      "outputs": [],
      "payable": false,
      "stateMutability": "nonpayable",
      "type": "function"
    },
    {
      "constant": false,
      "inputs": [
        {
          "name": "_index",
          "type": "uint256"
        }
      ],
      "name": "judge",
      "outputs": [],
      "payable": false,
      "stateMutability": "nonpayable",
      "type": "function"
    }
  ],
  "bytecode": "0x608060405234801561001057600080fd5b506040516020806126a183398101806040528101908080519060200190929190505050336000806101000a81548173ffffffffffffffffffffffffffffffffffffffff021916908373ffffffffffffffffffffffffffffffffffffffff16021790555080600160006101000a81548173ffffffffffffffffffffffffffffffffffffffff021916908373ffffffffffffffffffffffffffffffffffffffff160217905550506125dd806100c46000396000f300608060405260043610610111576000357c0100000000000000000000000000000000000000000000000000000000900463ffffffff168062ae2524146101165780630146a8161461016d5780630e638d1b146101c45780631c53c280146101ef57806363087895146102635780636b7ffb921461027a5780636dd7d8ea14610291578063715018a6146102d4578063805ef812146102eb5780638da5cb5b1461032e578063a230c52414610385578063ba7cc732146103e0578063bf4c988e14610419578063c04062261461049c578063c5714b89146104b3578063cb8d9a7a1461050e578063cddb8df214610595578063e74f7435146105c2578063eddeffc01461061d578063f2fde38b14610674575b600080fd5b34801561012257600080fd5b50610157600480360381019080803573ffffffffffffffffffffffffffffffffffffffff1690602001909291905050506106b7565b6040518082815260200191505060405180910390f35b34801561017957600080fd5b506101ae600480360381019080803573ffffffffffffffffffffffffffffffffffffffff1690602001909291905050506106cf565b6040518082815260200191505060405180910390f35b3480156101d057600080fd5b506101d96106e7565b6040518082815260200191505060405180910390f35b3480156101fb57600080fd5b5061021a600480360381019080803590602001909291905050506106ed565b604051808373ffffffffffffffffffffffffffffffffffffffff1673ffffffffffffffffffffffffffffffffffffffff1681526020018281526020019250505060405180910390f35b34801561026f57600080fd5b50610278610736565b005b34801561028657600080fd5b5061028f610a7a565b005b34801561029d57600080fd5b506102d2600480360381019080803573ffffffffffffffffffffffffffffffffffffffff169060200190929190505050610cd0565b005b3480156102e057600080fd5b506102e9610efb565b005b3480156102f757600080fd5b5061032c600480360381019080803573ffffffffffffffffffffffffffffffffffffffff169060200190929190505050610ffd565b005b34801561033a57600080fd5b5061034361109c565b604051808273ffffffffffffffffffffffffffffffffffffffff1673ffffffffffffffffffffffffffffffffffffffff16815260200191505060405180910390f35b34801561039157600080fd5b506103c6600480360381019080803573ffffffffffffffffffffffffffffffffffffffff1690602001909291905050506110c1565b604051808215151515815260200191505060405180910390f35b3480156103ec57600080fd5b50610417600480360381019080803590602001909291908035151590602001909291905050506110e1565b005b34801561042557600080fd5b5061045a600480360381019080803573ffffffffffffffffffffffffffffffffffffffff169060200190929190505050611268565b604051808273ffffffffffffffffffffffffffffffffffffffff1673ffffffffffffffffffffffffffffffffffffffff16815260200191505060405180910390f35b3480156104a857600080fd5b506104b161129b565b005b3480156104bf57600080fd5b506104f4600480360381019080803573ffffffffffffffffffffffffffffffffffffffff1690602001909291905050506116d2565b604051808215151515815260200191505060405180910390f35b34801561051a57600080fd5b50610593600480360381019080803590602001908201803590602001908080601f01602080910402602001604051908101604052809392919081815260200183838082843782019150505050505091929192908035906020019092919080359060200190929190803590602001909291905050506116f2565b005b3480156105a157600080fd5b506105c060048036038101908080359060200190929190505050611bc9565b005b3480156105ce57600080fd5b50610603600480360381019080803573ffffffffffffffffffffffffffffffffffffffff169060200190929190505050611fe0565b604051808215151515815260200191505060405180910390f35b34801561062957600080fd5b50610632612000565b604051808273ffffffffffffffffffffffffffffffffffffffff1673ffffffffffffffffffffffffffffffffffffffff16815260200191505060405180910390f35b34801561068057600080fd5b506106b5600480360381019080803573ffffffffffffffffffffffffffffffffffffffff169060200190929190505050612026565b005b60076020528060005260406000206000915090505481565b60046020528060005260406000206000915090505481565b60325481565b6008816015811015156106fc57fe5b600202016000915090508060000160009054906101000a900473ffffffffffffffffffffffffffffffffffffffff16908060010154905082565b6000600560003373ffffffffffffffffffffffffffffffffffffffff1673ffffffffffffffffffffffffffffffffffffffff16815260200190815260200160002060009054906101000a900460ff16151561079057600080fd5b600660003373ffffffffffffffffffffffffffffffffffffffff1673ffffffffffffffffffffffffffffffffffffffff16815260200190815260200160002060009054906101000a900460ff1615610a1e57600090505b6015811015610a19573373ffffffffffffffffffffffffffffffffffffffff1660088260158110151561081657fe5b6002020160000160009054906101000a900473ffffffffffffffffffffffffffffffffffffffff1673ffffffffffffffffffffffffffffffffffffffff161415610a0c57600060088260158110151561086b57fe5b6002020160000160006101000a81548173ffffffffffffffffffffffffffffffffffffffff021916908373ffffffffffffffffffffffffffffffffffffffff16021790555060006008826015811015156108c157fe5b6002020160010181905550806032819055506000600660003373ffffffffffffffffffffffffffffffffffffffff1673ffffffffffffffffffffffffffffffffffffffff16815260200190815260200160002060006101000a81548160ff0219169083151502179055506000600560003373ffffffffffffffffffffffffffffffffffffffff1673ffffffffffffffffffffffffffffffffffffffff16815260200190815260200160002060006101000a81548160ff021916908315150217905550600460003373ffffffffffffffffffffffffffffffffffffffff1673ffffffffffffffffffffffffffffffffffffffff168152602001908152602001600020543373ffffffffffffffffffffffffffffffffffffffff16827f31f5ddab49a7d89ccb260a0bc5168a620cc95f3a96379512c53bdd236a27629260405160405180910390a4610a19565b80806001019150506107e7565b610a77565b6000600560003373ffffffffffffffffffffffffffffffffffffffff1673ffffffffffffffffffffffffffffffffffffffff16815260200190815260200160002060006101000a81548160ff0219169083151502179055505b50565b6000600260003373ffffffffffffffffffffffffffffffffffffffff1673ffffffffffffffffffffffffffffffffffffffff16815260200190815260200160002060009054906101000a900460ff1615610ccd57600160009054906101000a900473ffffffffffffffffffffffffffffffffffffffff1690508073ffffffffffffffffffffffffffffffffffffffff166370a08231336040518263ffffffff167c0100000000000000000000000000000000000000000000000000000000028152600401808273ffffffffffffffffffffffffffffffffffffffff1673ffffffffffffffffffffffffffffffffffffffff168152602001915050602060405180830381600087803b158015610b8e57600080fd5b505af1158015610ba2573d6000803e3d6000fd5b505050506040513d6020811015610bb857600080fd5b810190808051906020019092919050505060046000600360003373ffffffffffffffffffffffffffffffffffffffff1673ffffffffffffffffffffffffffffffffffffffff16815260200190815260200160002060009054906101000a900473ffffffffffffffffffffffffffffffffffffffff1673ffffffffffffffffffffffffffffffffffffffff1673ffffffffffffffffffffffffffffffffffffffff168152602001908152602001600020600082825403925050819055506000600260003373ffffffffffffffffffffffffffffffffffffffff1673ffffffffffffffffffffffffffffffffffffffff16815260200190815260200160002060006101000a81548160ff0219169083151502179055505b50565b6000610cda610a7a565b81600360003373ffffffffffffffffffffffffffffffffffffffff1673ffffffffffffffffffffffffffffffffffffffff16815260200190815260200160002060006101000a81548173ffffffffffffffffffffffffffffffffffffffff021916908373ffffffffffffffffffffffffffffffffffffffff160217905550600160009054906101000a900473ffffffffffffffffffffffffffffffffffffffff1690508073ffffffffffffffffffffffffffffffffffffffff166370a08231336040518263ffffffff167c0100000000000000000000000000000000000000000000000000000000028152600401808273ffffffffffffffffffffffffffffffffffffffff1673ffffffffffffffffffffffffffffffffffffffff168152602001915050602060405180830381600087803b158015610e1857600080fd5b505af1158015610e2c573d6000803e3d6000fd5b505050506040513d6020811015610e4257600080fd5b8101908080519060200190929190505050600460008473ffffffffffffffffffffffffffffffffffffffff1673ffffffffffffffffffffffffffffffffffffffff168152602001908152602001600020600082825401925050819055506001600260003373ffffffffffffffffffffffffffffffffffffffff1673ffffffffffffffffffffffffffffffffffffffff16815260200190815260200160002060006101000a81548160ff0219169083151502179055505050565b6000809054906101000a900473ffffffffffffffffffffffffffffffffffffffff1673ffffffffffffffffffffffffffffffffffffffff163373ffffffffffffffffffffffffffffffffffffffff16141515610f5657600080fd5b6000809054906101000a900473ffffffffffffffffffffffffffffffffffffffff1673ffffffffffffffffffffffffffffffffffffffff167ff8df31144d9c2f0f6b59d69b8b98abd5459d07f2742c4df920b25aae33c6482060405160405180910390a260008060006101000a81548173ffffffffffffffffffffffffffffffffffffffff021916908373ffffffffffffffffffffffffffffffffffffffff160217905550565b6000809054906101000a900473ffffffffffffffffffffffffffffffffffffffff1673ffffffffffffffffffffffffffffffffffffffff163373ffffffffffffffffffffffffffffffffffffffff1614151561105857600080fd5b80600160006101000a81548173ffffffffffffffffffffffffffffffffffffffff021916908373ffffffffffffffffffffffffffffffffffffffff16021790555050565b6000809054906101000a900473ffffffffffffffffffffffffffffffffffffffff1681565b60066020528060005260406000206000915054906101000a900460ff1681565b600660003373ffffffffffffffffffffffffffffffffffffffff1673ffffffffffffffffffffffffffffffffffffffff16815260200190815260200160002060009054906101000a900460ff16151561113957600080fd5b6033805490508210151561114c57600080fd5b60338281548110151561115b57fe5b906000526020600020906007020160010154421015151561117b57600080fd5b60338281548110151561118a57fe5b90600052602060002090600702016002015442111515156111aa57600080fd5b80156111e5576033828154811015156111bf57fe5b906000526020600020906007020160050160008154809291906001019190505550611216565b6033828154811015156111f457fe5b9060005260206000209060070201600601600081548092919060010191905055505b3373ffffffffffffffffffffffffffffffffffffffff167f37bbca3a1f6731d30758bf0f10738c9371743163de526ade5cdeade763a533c7836040518082815260200191505060405180910390a25050565b60036020528060005260406000206000915054906101000a900473ffffffffffffffffffffffffffffffffffffffff1681565b6112a3612309565b6000806000600660003373ffffffffffffffffffffffffffffffffffffffff1673ffffffffffffffffffffffffffffffffffffffff16815260200190815260200160002060009054906101000a900460ff1615151561130157600080fd5b600560003373ffffffffffffffffffffffffffffffffffffffff1673ffffffffffffffffffffffffffffffffffffffff16815260200190815260200160002060009054906101000a900460ff1615156113ad576001600560003373ffffffffffffffffffffffffffffffffffffffff1673ffffffffffffffffffffffffffffffffffffffff16815260200190815260200160002060006101000a81548160ff0219169083151502179055505b60086032546015811015156113be57fe5b6002020160010154600460003373ffffffffffffffffffffffffffffffffffffffff1673ffffffffffffffffffffffffffffffffffffffff1681526020019081526020016000205411156116cc57600060066000600860325460158110151561142357fe5b6002020160000160009054906101000a900473ffffffffffffffffffffffffffffffffffffffff1673ffffffffffffffffffffffffffffffffffffffff1673ffffffffffffffffffffffffffffffffffffffff16815260200190815260200160002060006101000a81548160ff02191690831515021790555060408051908101604052803373ffffffffffffffffffffffffffffffffffffffff168152602001600460003373ffffffffffffffffffffffffffffffffffffffff1673ffffffffffffffffffffffffffffffffffffffff16815260200190815260200160002054815250935083600860325460158110151561151a57fe5b6002020160008201518160000160006101000a81548173ffffffffffffffffffffffffffffffffffffffff021916908373ffffffffffffffffffffffffffffffffffffffff160217905550602082015181600101559050506008600060158110151561158257fe5b6002020160010154925060009150600090505b60158110156115e657826008826015811015156115ae57fe5b600202016001015410156115d9576008816015811015156115cb57fe5b600202016001015492508091505b8080600101915050611595565b816032819055506001600660003373ffffffffffffffffffffffffffffffffffffffff1673ffffffffffffffffffffffffffffffffffffffff16815260200190815260200160002060006101000a81548160ff021916908315150217905550600460003373ffffffffffffffffffffffffffffffffffffffff1673ffffffffffffffffffffffffffffffffffffffff168152602001908152602001600020543373ffffffffffffffffffffffffffffffffffffffff166032547fc0b9964ad51c8e2be45bb46b2864cfe40fd9d458f790bce7390d8890a2bdfdc660405160405180910390a45b50505050565b60026020528060005260406000206000915054906101000a900460ff1681565b60006116fc612339565b600160009054906101000a900473ffffffffffffffffffffffffffffffffffffffff1691508173ffffffffffffffffffffffffffffffffffffffff1663a965a3ec6040518163ffffffff167c0100000000000000000000000000000000000000000000000000000000028152600401602060405180830381600087803b15801561178557600080fd5b505af1158015611799573d6000803e3d6000fd5b505050506040513d60208110156117af57600080fd5b81019080805190602001909291905050508273ffffffffffffffffffffffffffffffffffffffff16631270863d336040518263ffffffff167c0100000000000000000000000000000000000000000000000000000000028152600401808273ffffffffffffffffffffffffffffffffffffffff1673ffffffffffffffffffffffffffffffffffffffff168152602001915050602060405180830381600087803b15801561185b57600080fd5b505af115801561186f573d6000803e3d6000fd5b505050506040513d602081101561188557600080fd5b81019080805190602001909291905050508373ffffffffffffffffffffffffffffffffffffffff166370a08231336040518263ffffffff167c0100000000000000000000000000000000000000000000000000000000028152600401808273ffffffffffffffffffffffffffffffffffffffff1673ffffffffffffffffffffffffffffffffffffffff168152602001915050602060405180830381600087803b15801561193157600080fd5b505af1158015611945573d6000803e3d6000fd5b505050506040513d602081101561195b57600080fd5b8101908080519060200190929190505050031015151561197a57600080fd5b8173ffffffffffffffffffffffffffffffffffffffff16636ed326bd336040518263ffffffff167c0100000000000000000000000000000000000000000000000000000000028152600401808273ffffffffffffffffffffffffffffffffffffffff1673ffffffffffffffffffffffffffffffffffffffff168152602001915050600060405180830381600087803b158015611a1557600080fd5b505af1158015611a29573d6000803e3d6000fd5b50505050428410151515611a3c57600080fd5b6201518084018310151515611a5057600080fd5b60e0604051908101604052803373ffffffffffffffffffffffffffffffffffffffff16815260200185815260200184815260200187815260200186815260200160008152602001600081525090506033819080600181540180825580915050906001820390600052602060002090600702016000909192909190915060008201518160000160006101000a81548173ffffffffffffffffffffffffffffffffffffffff021916908373ffffffffffffffffffffffffffffffffffffffff16021790555060208201518160010155604082015181600201556060820151816003019080519060200190611b4392919061238d565b506080820151816004015560a0820151816005015560c082015181600601555050506033805490503373ffffffffffffffffffffffffffffffffffffffff167fe206df56540bc75a3afba0ddf9eb37c1c232bf7421075088d9754465ad9e90cb8686604051808381526020018281526020019250505060405180910390a3505050505050565b6060600060338054905083101515611be057600080fd5b603383815481101515611bef57fe5b90600052602060002090600702016002015442111515611c0e57600080fd5b600a603384815481101515611c1f57fe5b906000526020600020906007020160060154603385815481101515611c4057fe5b9060005260206000209060070201600501540110158015611ca05750603383815481101515611c6b57fe5b906000526020600020906007020160060154603384815481101515611c8c57fe5b906000526020600020906007020160050154115b15611e3757603383815481101515611cb457fe5b90600052602060002090600702016003018054600181600116156101000203166002900480601f016020809104026020016040519081016040528092919081815260200182805460018160011615610100020316600290048015611d595780601f10611d2e57610100808354040283529160200191611d59565b820191906000526020600020905b815481529060010190602001808311611d3c57829003601f168201915b50505050509150603383815481101515611d6f57fe5b9060005260206000209060070201600401549050611d8d828261208d565b507fdb5094f1284e925b4126c78f0c00a462c23a2c0ef1b816d7b6d9835bba1dc85c82826040518080602001838152602001828103825284818151815260200191508051906020019080838360005b83811015611df7578082015181840152602081019050611ddc565b50505050905090810190601f168015611e245780820380516001836020036101000a031916815260200191505b50935050505060405180910390a1611fdb565b6033600160338054905003815481101515611e4e57fe5b9060005260206000209060070201603384815481101515611e6b57fe5b90600052602060002090600702016000820160009054906101000a900473ffffffffffffffffffffffffffffffffffffffff168160000160006101000a81548173ffffffffffffffffffffffffffffffffffffffff021916908373ffffffffffffffffffffffffffffffffffffffff160217905550600182015481600101556002820154816002015560038201816003019080546001816001161561010002031660029004611f1b92919061240d565b506004820154816004015560058201548160050155600682015481600601559050506033600160338054905003815481101515611f5457fe5b9060005260206000209060070201600080820160006101000a81549073ffffffffffffffffffffffffffffffffffffffff021916905560018201600090556002820160009055600382016000611faa9190612494565b60048201600090556005820160009055600682016000905550506033805480919060019003611fd991906124dc565b505b505050565b60056020528060005260406000206000915054906101000a900460ff1681565b600160009054906101000a900473ffffffffffffffffffffffffffffffffffffffff1681565b6000809054906101000a900473ffffffffffffffffffffffffffffffffffffffff1673ffffffffffffffffffffffffffffffffffffffff163373ffffffffffffffffffffffffffffffffffffffff1614151561208157600080fd5b61208a8161220f565b50565b600080836040516020018082805190602001908083835b6020831015156120c957805182526020820191506020810190506020830392506120a4565b6001836020036101000a0380198251168184511680821785525050505050509050019150506040516020818303038152906040526040518082805190602001908083835b602083101515612132578051825260208201915060208101905060208303925061210d565b6001836020036101000a03801982511681845116808217855250505050505090500191505060405180910390209050600160009054906101000a900473ffffffffffffffffffffffffffffffffffffffff1673ffffffffffffffffffffffffffffffffffffffff16817c01000000000000000000000000000000000000000000000000000000009004846040518263ffffffff167c0100000000000000000000000000000000000000000000000000000000028152600401808281526020019150506000604051808303816000875af19250505091505092915050565b600073ffffffffffffffffffffffffffffffffffffffff168173ffffffffffffffffffffffffffffffffffffffff161415151561224b57600080fd5b8073ffffffffffffffffffffffffffffffffffffffff166000809054906101000a900473ffffffffffffffffffffffffffffffffffffffff1673ffffffffffffffffffffffffffffffffffffffff167f8be0079c531659141344cd1fd0a4f28419497f9722a3daafe3b4186f6b6457e060405160405180910390a3806000806101000a81548173ffffffffffffffffffffffffffffffffffffffff021916908373ffffffffffffffffffffffffffffffffffffffff16021790555050565b6040805190810160405280600073ffffffffffffffffffffffffffffffffffffffff168152602001600081525090565b60e060405190810160405280600073ffffffffffffffffffffffffffffffffffffffff1681526020016000815260200160008152602001606081526020016000815260200160008152602001600081525090565b828054600181600116156101000203166002900490600052602060002090601f016020900481019282601f106123ce57805160ff19168380011785556123fc565b828001600101855582156123fc579182015b828111156123fb5782518255916020019190600101906123e0565b5b509050612409919061250e565b5090565b828054600181600116156101000203166002900490600052602060002090601f016020900481019282601f106124465780548555612483565b8280016001018555821561248357600052602060002091601f016020900482015b82811115612482578254825591600101919060010190612467565b5b509050612490919061250e565b5090565b50805460018160011615610100020316600290046000825580601f106124ba57506124d9565b601f0160209004906000526020600020908101906124d8919061250e565b5b50565b815481835581811115612509576007028160070283600052602060002091820191016125089190612533565b5b505050565b61253091905b8082111561252c576000816000905550600101612514565b5090565b90565b6125ae91905b808211156125aa57600080820160006101000a81549073ffffffffffffffffffffffffffffffffffffffff0219169055600182016000905560028201600090556003820160006125899190612494565b60048201600090556005820160009055600682016000905550600701612539565b5090565b905600a165627a7a72305820877e7885cc39bc6815fa6f916afb7c67c359b84ef6c7744b1e75062376a3a9cb0029",
  "source": "pragma solidity ^0.4.24;\n\nimport \"openzeppelin-solidity/contracts/ownership/Ownable.sol\";\nimport \"openzeppelin-solidity/contracts/lifecycle/Pausable.sol\";\n\ncontract DeliberativeDemocracy is Ownable  {\n\n    struct Proposal {\n        address advocate; // \n        uint256 startTime; // \n        uint256 endTime; //\n        string method; // \n        uint256 para; // \n        uint256 support; // \n        uint256 oppose; // \n    }\n\n    struct Node {\n        address member;\n        uint256 tickets;\n    }\n\n    address public clientContractAddress;\n\n    event Run(uint256 indexed _index, address indexed _member, uint256 indexed _tickets);\n    event RunOut(uint256 indexed _index, address indexed _member, uint256 indexed _tickets);\n    event InitProposal(address indexed _addr, uint256 _startTime, uint256 _endTime, uint256 indexed _index);\n    event Examine(address indexed _addr, uint256 _index);\n    event JudgeResult(string method, uint256 para);\n\n    // tokenbalances[]\n    // mapping(address => uint256) public unused_balance; // \n    // mapping(address => uint256) public used_balance; //   \n    mapping(address => bool) public isUsed; // \n    mapping(address => address) public candidate; // \n    mapping(address => uint256) public ticket; // \n    mapping(address => bool) public isRun; // \n    mapping(address => bool) public isMember; // \n    mapping(address => uint256) public lastVoteTime; // \n    Node[21] public nodes; // \n    uint256 public minVotesIndex; // \n\n\n    // mapping(uint256 => address) public senate; //  \n    // mapping(uint256 => Proposal) public proposals; // \n    Proposal[] proposals;\n\n    constructor(address client) public {\n        clientContractAddress = client;\n    }\n\n    function setClientAddress(address _client) public onlyOwner {\n        clientContractAddress = _client;\n    }\n\n    function revote() public {\n        if(isUsed[msg.sender]) {\n            Client _client = Client(clientContractAddress);\n            ticket[candidate[msg.sender]] -= _client.balanceOf(msg.sender);\n            isUsed[msg.sender] = false;   \n        }\n    }\n\n    function vote(address _candidate) public {\n        revote();\n        candidate[msg.sender] = _candidate;\n\n        Client _client = Client(clientContractAddress);\n        ticket[_candidate] += _client.balanceOf(msg.sender);\n\n        isUsed[msg.sender] = true;\n    }\n\n    /*\n    function challenge(address _voter) public {\n\n    }\n\n    function run() public {\n\n    }\n\n    function proposal() public {\n\n    }\n\n    function examine() public {\n\n    }\n    */\n\n    //  \n    // \n    // \n    function run() public {\n        require(!isMember[msg.sender]);\n\n        if(!isRun[msg.sender]) isRun[msg.sender] = true;\n\n        // 21\n        if (ticket[msg.sender] > nodes[minVotesIndex].tickets) {\n            isMember[nodes[minVotesIndex].member] = false;\n\n            Node memory _node = Node(msg.sender, ticket[msg.sender]);\n            nodes[minVotesIndex] = _node;\n\n            uint256 _minTickets = nodes[0].tickets;\n            uint256 _index = 0;\n            for(uint256 i = 0; i < 21; i++) {\n                if(nodes[i].tickets < _minTickets) {\n                    _minTickets = nodes[i].tickets;\n                    _index = i;\n                }\n            }\n            \n            minVotesIndex = _index;\n\n            isMember[msg.sender] = true;\n            emit Run(minVotesIndex, msg.sender, ticket[msg.sender]);\n        }\n    }\n\n    // \n    // \n    // ()\n    // \n    function runOut() public {\n        require(isRun[msg.sender]);\n\n        if(isMember[msg.sender]){\n            for(uint256 i = 0; i < 21; i++) {\n                if(nodes[i].member == msg.sender) {\n                    nodes[i].member = 0x0;\n                    nodes[i].tickets = 0;\n                    minVotesIndex = i;\n                    \n                    isMember[msg.sender] = false;\n                    isRun[msg.sender] = false;\n                    emit RunOut(i, msg.sender, ticket[msg.sender]);\n                    break;\n                }                    \n            }\n        } else {\n            isRun[msg.sender] = false;\n        }\n\n        \n    }\n\n    function execute(string method, uint256 para) internal returns(bool){\n        bytes4 methodId = bytes4(keccak256(abi.encodePacked(method)));\n        return clientContractAddress.call(methodId, para);\n        //if (!clientContractAddress.call(method, para)) {\n        //    revert();\n        //}\n    }\n    \n    // \"onERC721Received(address,uint256,bytes)\"\n    // setDividendFee(uint256)\n    function proposal(string _method, uint256 _para, uint256 _startTime, uint256 _endTime)\n        public \n    {\n        Client _client = Client(clientContractAddress);\n        require(_client.balanceOf(msg.sender) - _client.lockTokens(msg.sender) >= _client.lockAmount_());\n\n        _client.lockTokenAdd(msg.sender);\n\n        require(_startTime >= now);\n        require(_endTime >= _startTime + 1 days);\n        \n        Proposal memory _proposal = Proposal(msg.sender, _startTime, _endTime, _method, _para, uint256(0), uint256(0));\n        proposals.push(_proposal);\n\n        emit InitProposal(msg.sender, _startTime, _endTime, proposals.length);\n    }\n\n    // _index\n    function examine(uint256 _index, bool _bool)\n        public\n    {\n        require(isMember[msg.sender]);\n        require(_index < proposals.length);\n        require(now >= proposals[_index].startTime);\n        require(now <= proposals[_index].endTime);\n\n        if (_bool) {\n            proposals[_index].support++;\n        } else {\n            proposals[_index].oppose++;\n        }\n\n        emit Examine(msg.sender, _index);\n    }\n\n    // endTime\n    function judge(uint256 _index) \n        public\n    {\n        require(_index < proposals.length);\n        require(now > proposals[_index].endTime);\n\n        if(proposals[_index].support + proposals[_index].oppose >= 10 && \n        proposals[_index].support > proposals[_index].oppose) \n        {\n            string memory _method = proposals[_index].method;\n            uint256 _para = proposals[_index].para;\n            execute(_method, _para);\n\n            emit JudgeResult(_method, _para);\n        } else {\n            proposals[_index] = proposals[proposals.length - 1];\n            delete proposals[proposals.length - 1];\n            proposals.length--;\n        }\n    }\n\n\n\n    /*\n    function withdraw() public {\n       // Issuer issuer = Issuer(IssuerContractAddress);\n       // issuer.transfer(msg.sender, unused_balance[msg.sender]);\n    }\n\n    function recharge(uint256 _value) public {\n       // Issuer issuer = Issuer(IssuerContractAddress);\n       // issuer.transferFrom(msg.sender, address(this), _value);\n       // unused_balance[msg.sender] += _value;        \n    }\n    */\n}\n\ninterface Client {\n    function transferFrom(address _from, address _to, uint256 _value) external returns(bool);  \n    function transfer(address _to, uint256 _value) external returns(bool);\n    function balanceOf(address _owner) external view returns(uint256);\n    function lockTokens(address _addr) external view returns(uint256);\n    function lockAmount_() external view returns(uint256);\n    function lockTokenAdd(address _addr) external;\n    function lockTokenSub(address _addr) external;\n\n    function setDividendFee(uint256 _dividendFee) external;\n    function setCommunityFee(uint256 _communityFee) external;\n    function setIncremental(uint256 _incremental) external;\n    function setLockAmount(uint256 _amount) external;\n    function lock(uint256 _lastTime) external;   \n}\n",
  "sourcePath": "/Users/minakokojima/Documents/GitHub/dapp-rosetta/Contract/Ethereum/Solidity/backup/Ethereum/contracts/DeliberativeDemocracy.sol",
  "compiler": {
    "name": "solc",
    "version": "0.4.24+commit.e67f0147.Emscripten.clang"
  },
  "schemaVersion": "2.0.1",
  "updatedAt": "2018-12-17T16:15:52.116Z"
}